{
  "contractName": "ZILFaucet",
  "abi": [
    {
      "constant": true,
      "inputs": [],
      "name": "ZILOwner",
      "outputs": [
        {
          "name": "",
          "type": "address"
        }
      ],
      "payable": false,
      "stateMutability": "view",
      "type": "function"
    },
    {
      "constant": true,
      "inputs": [],
      "name": "ZILToken",
      "outputs": [
        {
          "name": "",
          "type": "address"
        }
      ],
      "payable": false,
      "stateMutability": "view",
      "type": "function"
    },
    {
      "inputs": [
        {
          "name": "_ZILToken",
          "type": "address"
        },
        {
          "name": "_ZILOwner",
          "type": "address"
        }
      ],
      "payable": false,
      "stateMutability": "nonpayable",
      "type": "constructor"
    },
    {
      "payable": true,
      "stateMutability": "payable",
      "type": "fallback"
    },
    {
      "constant": false,
      "inputs": [
        {
          "name": "withdraw_amount",
          "type": "uint256"
        }
      ],
      "name": "withdraw",
      "outputs": [],
      "payable": false,
      "stateMutability": "nonpayable",
      "type": "function"
    }
  ],
  "bytecode": "0x608060405234801561001057600080fd5b506040516040806103e78339810180604052810190808051906020019092919080519060200190929190505050816000806101000a81548173ffffffffffffffffffffffffffffffffffffffff021916908373ffffffffffffffffffffffffffffffffffffffff16021790555080600160006101000a81548173ffffffffffffffffffffffffffffffffffffffff021916908373ffffffffffffffffffffffffffffffffffffffff1602179055505050610318806100cf6000396000f300608060405260043610610057576000357c0100000000000000000000000000000000000000000000000000000000900463ffffffff1680632e1a7d4d1461005c5780636db3b4db14610089578063ba1cb32a146100e0575b600080fd5b34801561006857600080fd5b5061008760048036038101908080359060200190929190505050610137565b005b34801561009557600080fd5b5061009e6102a1565b604051808273ffffffffffffffffffffffffffffffffffffffff1673ffffffffffffffffffffffffffffffffffffffff16815260200191505060405180910390f35b3480156100ec57600080fd5b506100f56102c7565b604051808273ffffffffffffffffffffffffffffffffffffffff1673ffffffffffffffffffffffffffffffffffffffff16815260200191505060405180910390f35b6103e8811115151561014857600080fd5b6000809054906101000a900473ffffffffffffffffffffffffffffffffffffffff1673ffffffffffffffffffffffffffffffffffffffff166323b872dd600160009054906101000a900473ffffffffffffffffffffffffffffffffffffffff1633846040518463ffffffff167c0100000000000000000000000000000000000000000000000000000000028152600401808473ffffffffffffffffffffffffffffffffffffffff1673ffffffffffffffffffffffffffffffffffffffff1681526020018373ffffffffffffffffffffffffffffffffffffffff1673ffffffffffffffffffffffffffffffffffffffff1681526020018281526020019350505050602060405180830381600087803b15801561026257600080fd5b505af1158015610276573d6000803e3d6000fd5b505050506040513d602081101561028c57600080fd5b81019080805190602001909291905050505050565b600160009054906101000a900473ffffffffffffffffffffffffffffffffffffffff1681565b6000809054906101000a900473ffffffffffffffffffffffffffffffffffffffff16815600a165627a7a72305820f3286bc04f0d398bc5ba5d751616b4701a8bd134a3714457216e2ce6802a49690029",
  "source": "pragma solidity ^0.4.24;\n\nimport 'openzeppelin-solidity/contracts/token/ERC20/StandardToken.sol';\n\n\n// A faucet for ERC20 token ZIL\ncontract ZILFaucet {\n\n\n  StandardToken public ZILToken;\n  address public ZILOwner;\n\n\n  // ZILFaucet constructor, provide the address of ZILToken contract and\n  // the owner address we will be approved to transferFrom\n  constructor(address _ZILToken, address _ZILOwner) public {\n\n    // Initialize the ZILToken from the address provided\n    ZILToken = StandardToken(_ZILToken);\n    ZILOwner = _ZILOwner;\n\n  }\n\n\n  function withdraw(uint withdraw_amount) public {\n\n    // Limit withdrawal amount to 10 ZIL\n    require(withdraw_amount <= 1000);\n\n    ZILToken.transferFrom(ZILOwner, msg.sender, withdraw_amount);\n\n  }\n\n\n  // REJECT any incoming ether\n  function () public payable { revert(); }\n\n\n}\n\n\n\n\n\n\n\n\n\n\n\n\n\n\n\n\n\n\n",
  "sourcePath": "/home/szilard/SOLIDITY/GANACHE/PROJ/ZILToken_ZILFaucet/contracts/ZILFaucet.sol",
  "compiler": {
    "name": "solc",
    "version": "0.4.26+commit.4563c3fc.Emscripten.clang"
  },
  "schemaVersion": "2.0.3",
  "updatedAt": "2022-03-29T20:56:44.276Z"
}